:0C0FB900C2A5C2A78980D2A77F017E00DC
:100FC500D3EF9400EE940040257DC7EDD3940074D3
:100FD50080948040127C01ECD3940074809480400E
:0E0FE500031C80F31D80E4EF1F70D51E80D228
:010FF30022DB
:10119E00E4FBC2A6D2A5D2A77F01FE120FC5E58041
:1011AE005480648070100BEBD394647480948040F0
:0A11BE00EDC2A77F0022C2A77F0147
:0111C8002204
:08111A002480FF1211227F80E6
:02112200A9071B
:10112400E4FA12119EEF70127F01FE120FC50AEA53
:10113400D394647480948040E922C2A6120FB9C289
:01114400A703
:011145002287
:0A10BF00AB19AA1AA91B1209C0FF01
:0210C900A90775
:1010CB00E4FA12119EEF70127F01FE120FC50AEAAD
:1010DB00D394647480948040E922D2A6120FB9C2D3
:0110EB00A75D
:0110EC0022E1
:1010ED00E4FA12119EEF70147F01FE120FC50AEA89
:1010FD00D394647480948040E97F0022D2A6D2A557
:0C110D00C2A7120FC1120FBFAF80C2A713
:0111190022B3
:10122B00D2B2D2B47F301211227F0C1211227F0165
:08123B001211227F06021122AC
:100F7C007F34121122E4F51EC3E51E942074809474
:100F8C00805020E51E12111AE4F51FC3E51F9420B2
:100F9C00748094805009E4FF1210C9051F80EC0581
:0D0FAC001E80D57F361211227F30021122E7
:10114600EFFB7A0070047F80801CEB64014A700418
:101156007F908012EB64024A70047F888008EB64FB
:0C116600034A70027F98EF2DFF02112257
:060C9A008B198A1A891B68
:100CA000120F7C7F34121122E4F51CC3E51C942042
:100CB000748094805029E51C12111AE4F51DC3E5D7
:100CC0001D94107480948050121210BF7401251B63
:100CD000F51BE4351AF51A051D80E3051C80CCE4EC
:100CE000F51CC3E51C9420748094805031E51C24CD
:100CF00080FF1211227F88121122E4F51DC3E51D29
:100D000094107480948050121210BF7401251BF54A
:100D10001BE4351AF51A051D80E3051C80C47F36D7
:080D20001211227F30021122A2
:100C0300E4F511F512F513F514ED541F2480F516D0
:100C1300EDD3941F74809480EFC4540F400624884E
:100C2300F51580042480F515EF540FFF7E80E4A8AA
:100C330007088005CEC313CE13D8F9F5128E117FA2
:100C430034121122AF16121122AF151211221210F3
:100C5300ED1210ED7513008F14851490E5147514BF
:100C630000F5131210EDEF4214E5144212E513429E
:100C730011E511F517E512F518AF16121122AF158C
:100C8300121122AF171210C9AF181210C97F3612F2
:070C930011227F3002112243
:100E390047616D65206F7665722000446F206B688D
:100E49006F003C2020204B686F003C205468756F70
:100E59006E67203E002020202044652020203E008F
:100E690042616E67207865702068616E6700312E77
:100E790000322E00332E004D656E750042617420DC
:080E8900646175004258480045
:100DB400012310012410012510012610012A00012D
:100DC400740002280000012B01012705C101C18222
:100DD400C180C107C103C104C105C106103420206C
:100DE40020202020202020202020202020201044EB
:100DF40020202020202020202020202020202020EF
:100E040010542020202020202020202020202020BA
:100E1400202010642020202020202020202020209A
:100E240020202020062E0000000000000275000093
:040E34000277000041
:10117200E4F575F576C3E5769FE5759E501DE4F5B9
:1011820077F5780578E578700205776471457770B0
:0C119200F20576E57670DE057580DA2245
:10124300758901758CFC758A18D28C308DFDC28C22
:03125300C28D2227
:0211C9008F0E87
:1011CB00E4F50F1200037FA0120EE1AF0E120EE139
:1011DB001200037FA1120EE11210908F0F12125604
:0211EB00AF0F44
:0111ED0022DF
:101212008F0E8D0F1200037FA0120EE1AF0E120E81
:09122200E1AF0F120EE1021256B9
:060FF4007B007A00793455
:100FFA008B0B8A0C890DE4F575F576AB0BAA0CA957
:10100A000D8576828575831209D9FF1210C9057676
:10101A00E57670020575C39410E575648094804086
:02102A00DA22C8
:06105F007BFF7A0E7944CC
:101065008B0E8A0F8910E4F575F576AB0EAA0FA9DC
:10107500108576828575831209D9FF600D1210C916
:0B1085000576E57670E5057580E12238
:10038300E4FF1211C9752C008F2D7F017E0012101E
:1003930030E52D752D00F52C7F011211C9EF422D8B
:1003A300E47F01FE121030852C2E852D2F7F021243
:1003B30011C9752C008F2D7F017E00121030E52DA1
:1003C300752D00F52C7F031211C9EF422DE47F0137
:1003D300FE121030852C30852D317F041211C97522
:1003E3002C008F2D7F017E00121030E52D752D001E
:1003F300F52C7F051211C9EF422DE47F01FE121087
:1004030030852C32852D33E4F575F576AF76EF25FF
:10041300E0242EF8E6FC08E6D3940FEC9427400A78
:10042300EF25E0242EF8E4F608F60576E57670026B
:1004330005756403457570D4E4F575F576E57624A2
:1004430001F578E43575F577C3E5789403E57764CA
:100453008094805050E57825E0242EF8E6FE08E6E7
:10046300FFE57625E0242EF8E6FC08E6FDC39FECC5
:100473009E50288C2C8D2DAE78EE25E0242EF8E6A8
:10048300FC08E6FDE57625E0242EF8A60408A6057B
:10049300EE25E0242EF8A62C08A62D0578E5787025
:1004A30002057780A30576E576700205756403453A
:0404B30075708A22B4
:10020800750BFF750C0E750D39C2AF1203837F0194
:100218001211227D02E4FF121146AB0BAA0CA90DA4
:100228001210657D037F01121146AE28AF297C00AC
:100238007D64120A06EF2430FF1210C9AE28AF29D8
:100248007C007D0A120A067C007D0A120A06ED244B
:1002580030FF1210C9AE28AF297C007D0A120A06A9
:10026800ED2430FF1210C97F201210C9C201D2023A
:10027800D3E529952FE528952E4049852990852E87
:100288002C852F2D85282E85292FE52EFDE4FF129C
:10029800121212102CE52FFD7F0112121212102CCF
:1002A800853028853129852C30852D31E530FD7F35
:1002B8000212121212102CE531FD7F0312121212D3
:1002C800102C8040D3E5299531E5289530402A85C2
:1002D800302C85312D852830852931E530FD7F0288
:1002E80012121212102CE531FD7F03121212121095
:1002F8002C852C32852D338011D3E5299533E528BB
:1003080095324019852832852933E532FD7F04125C
:10031800121212102CE533FD7F05121212C203C20D
:1003280004C205C206E4F575F576AF7674342FF885
:10033800762074442FF8762074542FF8762074644D
:100348002FF876200576E5767002057564104575F8
:1003580070D8752310752410752510752610E4F5CE
:1003680028F529C207F52AF57420B3FD7F147E000D
:0B03780012117230B3FD7F0102112250
:05126000D2AAD2AF226A
:1006E800E52B64047011756420FD7F031211467BAD
:1006F800007A007964803DE52B64037011755420FD
:10070800FD7F021211467B007A0079548026E52B82
:1007180064027011754420FD7F011211467B007A36
:10072800007944800F753420E4FDFF1211467B00E8
:100738007A007934120FFAE52B7003FF8004E52B59
:1007480014FF8F2BEF64047011756449FD7F031249
:1007580011467B007A007964803DE52B64037011B3
:10076800755449FD7F021211467B007A0079548046
:1007780026E52B64027011754449FD7F011211466C
:100788007B007A007944800F753449E4FDFF12112B
:10079800467B007A007934120FFAAF2B7E00EF64A3
:1007A80001700DAD23ED64106003ED700320033973
:1007B800EF64024E700DAF24EF64106003EF700316
:1007C800200426E52B6403700DAF25EF6410600349
:1007D800EF7003200513E52B64047017AF26EF6450
:1007E800106003EF700D30060AD207E5291529704D
:0607F800021528D20022C8
:1004B700E52B64047011756420FD7F031211467BE0
:1004C700007A007964803DE52B6403701175542030
:1004D700FD7F021211467B007A0079548026E52BB6
:1004E70064027011754420FD7F011211467B007A6A
:1004F700007944800F753420E4FDFF1211467B001C
:100507007A007934120FFAE52B640470047F0480B3
:1005170004E52B04FF8F2BEF64047011756449FD0C
:100527007F031211467B007A007964803DE52B64D6
:10053700037011755449FD7F021211467B007A0042
:1005470079548026E52B64027011754449FD7F01BB
:100557001211467B007A007944800F753449E4FD17
:10056700FF1211467B007A007934120FFAAF2B7E07
:1005770000EF6401700DAD23ED64106003ED7003AF
:10058700200339EF64024E700DAF24EF641060034F
:10059700EF7003200426E52B6403700DAF25EF648D
:1005A700106003EF7003200513E52B64047017AF89
:1005B70026EF64106003EF700D30060AD207E529B5
:0905C700152970021528D200224A
:100B4B00120F2F7C007D04120A5B8C218D22E52273
:100B5B004521700D20030A75430675230FD20380C0
:100B6B003DE52264014521700D20040A755306757D
:100B7B00240FD2048028E52264024521700D200544
:100B8B000A75630675250FD2058013E522640345AC
:100B9B0021700B20060875730675260FD206E52B00
:100BAB0064047011756449FD7F031211467B007A52
:100BBB00007964803DE52B64037011755449FD7F0A
:100BCB00021211467B007A0079548026E52B6402D1
:100BDB007011754449FD7F011211467B007A007933
:100BEB0044800F753449E4FDFF1211467B007A00F7
:080BFB007934120FFAD2002236
:1000160074342523F8762074442524F87620745405
:100026002525F8762074642526F87620AF23EF6020
:1000360009D3940F748094804003C38001D3920344
:10004600AF24EF6009D3940F748094804003C3807B
:1000560001D39204AF25EF6009D3940F7480948086
:100066004003C38001D39205AF26EF6009D3940FF6
:10007600748094804003C38001D39206300332E536
:100086002370047F108004E52314FF8F237E00EF86
:10009600700AE52B64017004D207800CEF4E7008DD
:1000A6000529E5297002052874342523F87606808B
:1000B60003752310300432E52470047F108004E5B4
:1000C6002414FF8F247E00EF700AE52B640270046F
:1000D600D207800CEF4E70080529E5297002052825
:1000E60074442524F876068003752410300532E51D
:1000F6002570047F108004E52514FF8F257E00EF10
:10010600700AE52B64037004D207800CEF4E70086A
:100116000529E5297002052874542525F8760680F8
:1001260003752510300632E52670047F108004E53D
:100136002614FF8F267E00EF700AE52B64047004F8
:10014600D207800CEF4E70080529E52970020528B4
:1001560074642526F876068003752610E52B64045C
:100166007014200711756449FD7F031211467B0048
:100176007A007964804BE52B6403701420071175AF
:100186005449FD7F021211467B007A007954803172
:10019600E52B64027014200711754449FD7F011296
:1001A60011467B007A0079448017E52B64017014B0
:1001B600200711753449FDFF1211467B007A00793C
:1001C60034120FFAE4FDFF121146120FF4E4FD7F1C
:1001D600011211467B007A007944120FFAE4FD7F82
:1001E600021211467B007A007954120FFAE4FD7F61
:1001F600031211467B007A007964120FFAD20005C9
:020206002A22AA
:03001300020E9149
:100E9100C0E0C0F0C083C082C0D075D000C000C027
:100EA10001C002C003C004C005C006C00712102C57
:100EB10030B3FD20B00612102C1206E820B1061244
:100EC100102C1204B7D007D006D005D004D003D01F
:100ED10002D001D000D0D0D082D083D0F0D0E03287
:1007FE007F011211227D02E4FF12114612105F7D5D
:10080E00017F02121146E527640170087BFF7A0E04
:10081E00794B8012E52764057BFF70067A0E7953BB
:10082E0080047A0E795E12106520B05012102C30B2
:10083E00B0FDE527640170047F018005E52724FCE7
:10084E00FF8F277F011211227D02E4FF1211461243
:10085E00105F7D017F02121146E527640170087B4F
:10086E00FF7A0E794B8012E52764057BFF70067ABE
:10087E000E795380047A0E795E12106520B15012F3
:10088E00102C30B1FDE527640970047F098005E561
:10089E00272404FF8F277F011211227D02E4FF120D
:1008AE00114612105F7D017F02121146E527640189
:1008BE0070087BFF7A0E794B8012E52764057BFF6B
:1008CE0070067A0E795380047A0E795E12106530B6
:0D08DE00B3030208377F01121122D202225B
:1005D0001203837F01121122E4FDFF1211467BFFFB
:1005E0007A0E7969121065E4FD7F011211467BFFD6
:1005F0007A0E7977121065AE2EAF2F7C007D6412D3
:100600000A06EF2430FF1210C9AE2EAF2F7C007DFA
:100610000A120A067C007D0A120A06ED2430FF1237
:1006200010C9AE2EAF2F7C007D0A120A06ED2430D1
:10063000FF1210C97F201210C9E4FD7F021211467B
:100640007BFF7A0E797A121065AE30AF317C007D77
:1006500064120A06EF2430FF1210C9AE30AF317CAD
:10066000007D0A120A067C007D0A120A06ED24307B
:10067000FF1210C9AE30AF317C007D0A120A06EDC0
:100680002430FF1210C97F201210C9E4FD7F03122D
:1006900011467BFF7A0E797D121065AE32AF337C46
:1006A000007D64120A06EF2430FF1210C9AE32AF8B
:1006B000337C007D0A120A067C007D0A120A06EDD0
:1006C0002430FF1210C9AE32AF337C007D0A120A0B
:1006D00006ED2430FF1210C97F201210C920B3FD8F
:0806E0007F01121122D2022257
:1008EB00C2AF300205752B01C2027D03E4FF12116A
:1008FB00467BFF7A0E79801210657D017F01121104
:10090B00467BFF7A0E79851210657D017F021211ED
:10091B00467BFF7A0E798D1210657D017F031211D4
:10092B004612105FE4FDAF2B1211467F3E1210C929
:10093B0020B02C12102C30B0FDE4FDAF2B12114661
:10094B007F201210C9E52B640170047F018004E540
:10095B002B14FF8F2BE4FD1211467F3E1210C92082
:10096B00B12C12102C30B1FDE4FDAF2B1211467FD0
:10097B00201210C9E52B640370047F038004E52B60
:10098B0004FF8F2BE4FD1211467F3E1210C920B3DA
:10099B002312102C30B3FDAF2B7E00EF64017005DA
:1009AB00D201D2AF22EF64024E70030205D01207C0
:0509BB00FE85279022DB
:100A910012122B121260120383D2B3D2B0D2B12040
:100AA100010B1208EB3001F7120B4B80F230006A98
:100AB1003007051202088060AF2B7E00EF640470DE
:100AC100057564498019EF64034E700575544980BA
:100AD1000EEF64024E70057544498003753449E494
:100AE100FDFF121146120FF4E4FD7F011211467B46
:100AF100007A007944120FFAE4FD7F021211467B5D
:100B0100007A007954120FFAE4FD7F031211467B3B
:100B1100007A007964120FFAC200C3E52A940574C1
:100B21008094804009200706120B4BE4F52AE574F6
:100B3100C395274009200706120016E4F5740574D1
:0A0B41007F327E00121172020AA03A
:04102C007F027E00C1
:10103000D3EF9400EE940040257D26EDD394007408
:1010400080948040127C82ECD39400748094804021
:0E105000031C80F31D80E4EF1F70D51E80D2BC
:01105E00226F
:0511EE001211F3D2A173
:1011F3007F01EFD394007480948040127E02EED37B
:0E12030094007480948040031E80F31F80E4EA
:0112110022BA
:0F000300D2A01211EEC2A01211F3C2A10211F38A
:0A125600C2A01211EED2A00211F3A3
:020EE100AD075B
:100EE300E4FBFAEBC3940874809480501AEDC413A6
:100EF3001313540124FF92A0ED25E0FD1211EEC25D
:100F0300A11211F30B80DCD2A01211F3D2A130A0F5
:100F1300130AEAD394C87480948040F2C2A11211D8
:0B0F2300F37F0022C2A11211F37F0136
:010F2E0022A0
:10109000E4FDFCD2A01211F3EDC394087480948097
:1010A000501AD2A11211F3EC25E0FCA2A0E43342C5
:0E10B000041211F3C2A11211F30D80DCAF0483
:0110BE00220F
:03000000020D28C6
:0C0D2800787FE4F6D8FD75817C020D6F29
:1009C000BB010689828A83E0225002E722BBFE0235
:0909D000E32289828A83E4932268
:1009D900BB010CE58229F582E5833AF583E02250D3
:1009E90006E92582F8E622BBFE06E92582F8E2221D
:0D09F900E58229F582E5833AF583E4932237
:100A0600BC000BBE0029EF8DF084FFADF022E4CCD4
:100A1600F875F008EF2FFFEE33FEEC33FCEE9DEC9D
:100A2600984005FCEE9DFE0FD5F0E9E4CEFD22EDE3
:100A3600F8F5F0EE8420D21CFEADF075F008EF2F2D
:100A4600FFED33FD4007985006D5F0F222C398FD1E
:050A56000FD5F0EA22BB
:100A5B00C2D5EC30E709B2D5E4C39DFDE49CFCEEB6
:100A6B0030E715B2D5E4C39FFFE49EFE120A06C31E
:100A7B00E49DFDE49CFC8003120A0630D507C3E419
:060A8B009FFFE49EFE2225
:100F2F00AC79AD7AAE7BAF7C7810EC4D4E4F700440
:100F3F007CA57DA5C3EC13FCED13FDEE13FEEF13A3
:100F4F00FF5010EC64CCFCED644CFDEE644EFEEFF4
:100F5F0064CEFFD8DF8C798D7A8E7B8F7CEE547FB9
:0D0F6F00FE228E798F7A74A5F57BF57C2229
:100D3400020A91E493A3F8E493A34003F68001F23A
:100D440008DFF48029E493A3F85407240CC8C333C0
:100D5400C4540F4420C8834004F456800146F6DF8F
:100D6400E4800B0102040810204080900DB4E47E5E
:100D7400019360BCA3FF543F30E509541FFEE49384
:100D8400A360010ECF54C025E060A840B8E493A34B
:100D9400FAE493A3F8E493A3C8C582C8CAC583CA76
:100DA400F0A3C8C582C8CAC583CADFE9DEE780BE2E
:010E380000B9
:00000001FF
